{
  "contractName": "TST2",
  "abi": [
    {
      "inputs": [],
      "stateMutability": "nonpayable",
      "type": "constructor"
    },
    {
      "anonymous": false,
      "inputs": [
        {
          "indexed": true,
          "internalType": "address",
          "name": "owner",
          "type": "address"
        },
        {
          "indexed": true,
          "internalType": "address",
          "name": "spender",
          "type": "address"
        },
        {
          "indexed": false,
          "internalType": "uint256",
          "name": "value",
          "type": "uint256"
        }
      ],
      "name": "Approval",
      "type": "event"
    },
    {
      "anonymous": false,
      "inputs": [
        {
          "indexed": false,
          "internalType": "address",
          "name": "target",
          "type": "address"
        }
      ],
      "name": "Frozen",
      "type": "event"
    },
    {
      "anonymous": false,
      "inputs": [
        {
          "indexed": true,
          "internalType": "address",
          "name": "from",
          "type": "address"
        },
        {
          "indexed": false,
          "internalType": "uint256",
          "name": "amount",
          "type": "uint256"
        },
        {
          "indexed": false,
          "internalType": "uint256",
          "name": "releaseTime",
          "type": "uint256"
        }
      ],
      "name": "Lock",
      "type": "event"
    },
    {
      "anonymous": false,
      "inputs": [
        {
          "indexed": true,
          "internalType": "address",
          "name": "previousOwner",
          "type": "address"
        },
        {
          "indexed": true,
          "internalType": "address",
          "name": "newOwner",
          "type": "address"
        }
      ],
      "name": "OwnershipTransferred",
      "type": "event"
    },
    {
      "anonymous": false,
      "inputs": [],
      "name": "Pause",
      "type": "event"
    },
    {
      "anonymous": false,
      "inputs": [
        {
          "indexed": true,
          "internalType": "address",
          "name": "from",
          "type": "address"
        },
        {
          "indexed": true,
          "internalType": "address",
          "name": "to",
          "type": "address"
        },
        {
          "indexed": false,
          "internalType": "uint256",
          "name": "value",
          "type": "uint256"
        }
      ],
      "name": "Transfer",
      "type": "event"
    },
    {
      "anonymous": false,
      "inputs": [
        {
          "indexed": false,
          "internalType": "address",
          "name": "target",
          "type": "address"
        }
      ],
      "name": "Unfrozen",
      "type": "event"
    },
    {
      "anonymous": false,
      "inputs": [
        {
          "indexed": true,
          "internalType": "address",
          "name": "from",
          "type": "address"
        },
        {
          "indexed": false,
          "internalType": "uint256",
          "name": "amount",
          "type": "uint256"
        }
      ],
      "name": "Unlock",
      "type": "event"
    },
    {
      "anonymous": false,
      "inputs": [],
      "name": "Unpause",
      "type": "event"
    },
    {
      "inputs": [
        {
          "internalType": "address",
          "name": "owner",
          "type": "address"
        },
        {
          "internalType": "address",
          "name": "spender",
          "type": "address"
        }
      ],
      "name": "allowance",
      "outputs": [
        {
          "internalType": "uint256",
          "name": "",
          "type": "uint256"
        }
      ],
      "stateMutability": "view",
      "type": "function"
    },
    {
      "inputs": [
        {
          "internalType": "address",
          "name": "spender",
          "type": "address"
        },
        {
          "internalType": "uint256",
          "name": "amount",
          "type": "uint256"
        }
      ],
      "name": "approve",
      "outputs": [
        {
          "internalType": "bool",
          "name": "",
          "type": "bool"
        }
      ],
      "stateMutability": "nonpayable",
      "type": "function"
    },
    {
      "inputs": [
        {
          "internalType": "address",
          "name": "from",
          "type": "address"
        }
      ],
      "name": "autoUnlock",
      "outputs": [
        {
          "internalType": "bool",
          "name": "success",
          "type": "bool"
        }
      ],
      "stateMutability": "nonpayable",
      "type": "function"
    },
    {
      "inputs": [
        {
          "internalType": "uint256",
          "name": "amount",
          "type": "uint256"
        }
      ],
      "name": "burn",
      "outputs": [],
      "stateMutability": "nonpayable",
      "type": "function"
    },
    {
      "inputs": [
        {
          "internalType": "address",
          "name": "account",
          "type": "address"
        },
        {
          "internalType": "uint256",
          "name": "amount",
          "type": "uint256"
        }
      ],
      "name": "burnFrom",
      "outputs": [],
      "stateMutability": "nonpayable",
      "type": "function"
    },
    {
      "inputs": [],
      "name": "decimals",
      "outputs": [
        {
          "internalType": "uint8",
          "name": "",
          "type": "uint8"
        }
      ],
      "stateMutability": "view",
      "type": "function"
    },
    {
      "inputs": [
        {
          "internalType": "address",
          "name": "spender",
          "type": "address"
        },
        {
          "internalType": "uint256",
          "name": "subtractedValue",
          "type": "uint256"
        }
      ],
      "name": "decreaseAllowance",
      "outputs": [
        {
          "internalType": "bool",
          "name": "",
          "type": "bool"
        }
      ],
      "stateMutability": "nonpayable",
      "type": "function"
    },
    {
      "inputs": [
        {
          "internalType": "address",
          "name": "_target",
          "type": "address"
        }
      ],
      "name": "freeze",
      "outputs": [],
      "stateMutability": "nonpayable",
      "type": "function"
    },
    {
      "inputs": [
        {
          "internalType": "address",
          "name": "spender",
          "type": "address"
        },
        {
          "internalType": "uint256",
          "name": "addedValue",
          "type": "uint256"
        }
      ],
      "name": "increaseAllowance",
      "outputs": [
        {
          "internalType": "bool",
          "name": "",
          "type": "bool"
        }
      ],
      "stateMutability": "nonpayable",
      "type": "function"
    },
    {
      "inputs": [
        {
          "internalType": "address",
          "name": "_target",
          "type": "address"
        }
      ],
      "name": "isFrozen",
      "outputs": [
        {
          "internalType": "bool",
          "name": "",
          "type": "bool"
        }
      ],
      "stateMutability": "view",
      "type": "function"
    },
    {
      "inputs": [
        {
          "internalType": "address",
          "name": "recipient",
          "type": "address"
        },
        {
          "internalType": "uint256",
          "name": "amount",
          "type": "uint256"
        },
        {
          "internalType": "uint256",
          "name": "releaseTime",
          "type": "uint256"
        }
      ],
      "name": "lock",
      "outputs": [
        {
          "internalType": "bool",
          "name": "",
          "type": "bool"
        }
      ],
      "stateMutability": "nonpayable",
      "type": "function"
    },
    {
      "inputs": [
        {
          "internalType": "address",
          "name": "locked",
          "type": "address"
        },
        {
          "internalType": "uint256",
          "name": "index",
          "type": "uint256"
        }
      ],
      "name": "lockInfo",
      "outputs": [
        {
          "internalType": "uint256",
          "name": "releaseTime",
          "type": "uint256"
        },
        {
          "internalType": "uint256",
          "name": "amount",
          "type": "uint256"
        }
      ],
      "stateMutability": "view",
      "type": "function"
    },
    {
      "inputs": [],
      "name": "name",
      "outputs": [
        {
          "internalType": "string",
          "name": "",
          "type": "string"
        }
      ],
      "stateMutability": "view",
      "type": "function"
    },
    {
      "inputs": [],
      "name": "owner",
      "outputs": [
        {
          "internalType": "address",
          "name": "",
          "type": "address"
        }
      ],
      "stateMutability": "view",
      "type": "function"
    },
    {
      "inputs": [],
      "name": "pause",
      "outputs": [],
      "stateMutability": "nonpayable",
      "type": "function"
    },
    {
      "inputs": [],
      "name": "paused",
      "outputs": [
        {
          "internalType": "bool",
          "name": "",
          "type": "bool"
        }
      ],
      "stateMutability": "view",
      "type": "function"
    },
    {
      "inputs": [
        {
          "internalType": "address",
          "name": "from",
          "type": "address"
        }
      ],
      "name": "releaseLock",
      "outputs": [
        {
          "internalType": "bool",
          "name": "success",
          "type": "bool"
        }
      ],
      "stateMutability": "nonpayable",
      "type": "function"
    },
    {
      "inputs": [],
      "name": "renounceOwnership",
      "outputs": [],
      "stateMutability": "nonpayable",
      "type": "function"
    },
    {
      "inputs": [],
      "name": "symbol",
      "outputs": [
        {
          "internalType": "string",
          "name": "",
          "type": "string"
        }
      ],
      "stateMutability": "view",
      "type": "function"
    },
    {
      "inputs": [
        {
          "internalType": "address",
          "name": "locked",
          "type": "address"
        }
      ],
      "name": "totalLocked",
      "outputs": [
        {
          "internalType": "uint256",
          "name": "amount",
          "type": "uint256"
        },
        {
          "internalType": "uint256",
          "name": "length",
          "type": "uint256"
        }
      ],
      "stateMutability": "view",
      "type": "function"
    },
    {
      "inputs": [],
      "name": "totalSupply",
      "outputs": [
        {
          "internalType": "uint256",
          "name": "",
          "type": "uint256"
        }
      ],
      "stateMutability": "view",
      "type": "function"
    },
    {
      "inputs": [
        {
          "internalType": "address",
          "name": "newOwner",
          "type": "address"
        }
      ],
      "name": "transferOwnership",
      "outputs": [],
      "stateMutability": "nonpayable",
      "type": "function"
    },
    {
      "inputs": [
        {
          "internalType": "address",
          "name": "recipient",
          "type": "address"
        },
        {
          "internalType": "uint256",
          "name": "amount",
          "type": "uint256"
        },
        {
          "internalType": "uint256",
          "name": "releaseTime",
          "type": "uint256"
        }
      ],
      "name": "transferWithLock",
      "outputs": [
        {
          "internalType": "bool",
          "name": "success",
          "type": "bool"
        }
      ],
      "stateMutability": "nonpayable",
      "type": "function"
    },
    {
      "inputs": [
        {
          "internalType": "address",
          "name": "_target",
          "type": "address"
        }
      ],
      "name": "unfreeze",
      "outputs": [],
      "stateMutability": "nonpayable",
      "type": "function"
    },
    {
      "inputs": [
        {
          "internalType": "address",
          "name": "from",
          "type": "address"
        },
        {
          "internalType": "uint256",
          "name": "idx",
          "type": "uint256"
        }
      ],
      "name": "unlock",
      "outputs": [
        {
          "internalType": "bool",
          "name": "success",
          "type": "bool"
        }
      ],
      "stateMutability": "nonpayable",
      "type": "function"
    },
    {
      "inputs": [],
      "name": "unpause",
      "outputs": [],
      "stateMutability": "nonpayable",
      "type": "function"
    },
    {
      "inputs": [
        {
          "internalType": "address",
          "name": "to",
          "type": "address"
        },
        {
          "internalType": "uint256",
          "name": "amount",
          "type": "uint256"
        }
      ],
      "name": "transfer",
      "outputs": [
        {
          "internalType": "bool",
          "name": "",
          "type": "bool"
        }
      ],
      "stateMutability": "nonpayable",
      "type": "function"
    },
    {
      "inputs": [
        {
          "internalType": "address",
          "name": "from",
          "type": "address"
        },
        {
          "internalType": "address",
          "name": "to",
          "type": "address"
        },
        {
          "internalType": "uint256",
          "name": "amount",
          "type": "uint256"
        }
      ],
      "name": "transferFrom",
      "outputs": [
        {
          "internalType": "bool",
          "name": "",
          "type": "bool"
        }
      ],
      "stateMutability": "nonpayable",
      "type": "function"
    },
    {
      "inputs": [
        {
          "internalType": "address",
          "name": "holder",
          "type": "address"
        }
      ],
      "name": "balanceOf",
      "outputs": [
        {
          "internalType": "uint256",
          "name": "balance",
          "type": "uint256"
        }
      ],
      "stateMutability": "view",
      "type": "function"
    },
    {
      "inputs": [
        {
          "internalType": "address",
          "name": "holder",
          "type": "address"
        }
      ],
      "name": "balanceOfTotal",
      "outputs": [
        {
          "internalType": "uint256",
          "name": "balance",
          "type": "uint256"
        }
      ],
      "stateMutability": "view",
      "type": "function"
    }
  ],
  "bytecode": "0x60806040526000600960006101000a81548160ff0219169083151502179055503480156200002c57600080fd5b506040518060400160405280600581526020017f54455354320000000000000000000000000000000000000000000000000000008152506040518060400160405280600481526020017f54535432000000000000000000000000000000000000000000000000000000008152508160039080519060200190620000b19291906200035c565b508060049080519060200190620000ca9291906200035c565b5050506000620000df620001c460201b60201c565b905080600560006101000a81548173ffffffffffffffffffffffffffffffffffffffff021916908373ffffffffffffffffffffffffffffffffffffffff1602179055508073ffffffffffffffffffffffffffffffffffffffff16600073ffffffffffffffffffffffffffffffffffffffff167f8be0079c531659141344cd1fd0a4f28419497f9722a3daafe3b4186f6b6457e060405160405180910390a350620001be3362000193620001cc60201b60201c565b600a620001a191906200054c565b6377359400620001b2919062000689565b620001d560201b60201c565b620007cb565b600033905090565b60006012905090565b600073ffffffffffffffffffffffffffffffffffffffff168273ffffffffffffffffffffffffffffffffffffffff16141562000248576040517f08c379a00000000000000000000000000000000000000000000000000000000081526004016200023f9062000444565b60405180910390fd5b6200025c600083836200033a60201b60201c565b806002600082825462000270919062000494565b92505081905550806000808473ffffffffffffffffffffffffffffffffffffffff1673ffffffffffffffffffffffffffffffffffffffff1681526020019081526020016000206000828254620002c7919062000494565b925050819055508173ffffffffffffffffffffffffffffffffffffffff16600073ffffffffffffffffffffffffffffffffffffffff167fddf252ad1be2c89b69c2b068fc378daa952ba7f163c4a11628f55a4df523b3ef836040516200032e919062000466565b60405180910390a35050565b620003528383836200035760201b62001cff1760201c565b505050565b505050565b8280546200036a9062000701565b90600052602060002090601f0160209004810192826200038e5760008555620003da565b82601f10620003a957805160ff1916838001178555620003da565b82800160010185558215620003da579182015b82811115620003d9578251825591602001919060010190620003bc565b5b509050620003e99190620003ed565b5090565b5b8082111562000408576000816000905550600101620003ee565b5090565b60006200041b601f8362000483565b91506200042882620007a2565b602082019050919050565b6200043e81620006ea565b82525050565b600060208201905081810360008301526200045f816200040c565b9050919050565b60006020820190506200047d600083018462000433565b92915050565b600082825260208201905092915050565b6000620004a182620006ea565b9150620004ae83620006ea565b9250827fffffffffffffffffffffffffffffffffffffffffffffffffffffffffffffffff03821115620004e657620004e562000737565b5b828201905092915050565b6000808291508390505b600185111562000543578086048111156200051b576200051a62000737565b5b60018516156200052b5780820291505b80810290506200053b8562000795565b9450620004fb565b94509492505050565b60006200055982620006ea565b91506200056683620006f4565b9250620005957fffffffffffffffffffffffffffffffffffffffffffffffffffffffffffffffff84846200059d565b905092915050565b600082620005af576001905062000682565b81620005bf576000905062000682565b8160018114620005d85760028114620005e35762000619565b600191505062000682565b60ff841115620005f857620005f762000737565b5b8360020a91508482111562000612576200061162000737565b5b5062000682565b5060208310610133831016604e8410600b8410161715620006535782820a9050838111156200064d576200064c62000737565b5b62000682565b620006628484846001620004f1565b925090508184048111156200067c576200067b62000737565b5b81810290505b9392505050565b60006200069682620006ea565b9150620006a383620006ea565b9250817fffffffffffffffffffffffffffffffffffffffffffffffffffffffffffffffff0483118215151615620006df57620006de62000737565b5b828202905092915050565b6000819050919050565b600060ff82169050919050565b600060028204905060018216806200071a57607f821691505b6020821081141562000731576200073062000766565b5b50919050565b7f4e487b7100000000000000000000000000000000000000000000000000000000600052601160045260246000fd5b7f4e487b7100000000000000000000000000000000000000000000000000000000600052602260045260246000fd5b60008160011c9050919050565b7f45524332303a206d696e7420746f20746865207a65726f206164647265737300600082015250565b61398e80620007db6000396000f3fe608060405234801561001057600080fd5b50600436106101da5760003560e01c80638d1fdf2f11610104578063d29dad83116100a2578063e20bc67b11610071578063e20bc67b14610593578063e2ab691d146105c3578063e5839836146105f3578063f2fde38b14610623576101da565b8063d29dad83146104d2578063d8fb933714610502578063dd62ed3e14610533578063de6baccb14610563576101da565b8063a457c2d7116100de578063a457c2d714610411578063a9059cbb14610441578063b2520a7c14610471578063d1c46916146104a2576101da565b80638d1fdf2f146103b95780638da5cb5b146103d557806395d89b41146103f3576101da565b806342966c681161017c578063715018a61161014b578063715018a61461035957806379cc6790146103635780637eee288d1461037f5780638456cb59146103af576101da565b806342966c68146102d357806345c8b1a6146102ef5780635c975abb1461030b57806370a0823114610329576101da565b806323b872dd116101b857806323b872dd1461024b578063313ce5671461027b57806339509351146102995780633f4ba83a146102c9576101da565b806306fdde03146101df578063095ea7b3146101fd57806318160ddd1461022d575b600080fd5b6101e761063f565b6040516101f49190612eab565b60405180910390f35b61021760048036038101906102129190612aa7565b6106d1565b6040516102249190612e90565b60405180910390f35b6102356106ef565b604051610242919061312d565b60405180910390f35b61026560048036038101906102609190612a54565b6106f9565b6040516102729190612e90565b60405180910390f35b61028361088a565b6040516102909190613171565b60405180910390f35b6102b360048036038101906102ae9190612aa7565b610893565b6040516102c09190612e90565b60405180910390f35b6102d161093f565b005b6102ed60048036038101906102e89190612b3a565b610a53565b005b610309600480360381019061030491906129e7565b610a67565b005b610313610b75565b6040516103209190612e90565b60405180910390f35b610343600480360381019061033e91906129e7565b610b88565b604051610350919061312d565b60405180910390f35b610361610c28565b005b61037d60048036038101906103789190612aa7565b610d65565b005b61039960048036038101906103949190612aa7565b610de0565b6040516103a69190612e90565b60405180910390f35b6103b7610ef7565b005b6103d360048036038101906103ce91906129e7565b61100c565b005b6103dd61111a565b6040516103ea9190612e75565b60405180910390f35b6103fb611144565b6040516104089190612eab565b60405180910390f35b61042b60048036038101906104269190612aa7565b6111d6565b6040516104389190612e90565b60405180910390f35b61045b60048036038101906104569190612aa7565b6112c1565b6040516104689190612e90565b60405180910390f35b61048b60048036038101906104869190612aa7565b6114dd565b604051610499929190613148565b60405180910390f35b6104bc60048036038101906104b791906129e7565b611578565b6040516104c99190612e90565b60405180910390f35b6104ec60048036038101906104e791906129e7565b611700565b6040516104f9919061312d565b60405180910390f35b61051c600480360381019061051791906129e7565b611712565b60405161052a929190613148565b60405180910390f35b61054d60048036038101906105489190612a14565b6117a1565b60405161055a919061312d565b60405180910390f35b61057d60048036038101906105789190612ae7565b611828565b60405161058a9190612e90565b60405180910390f35b6105ad60048036038101906105a891906129e7565b611902565b6040516105ba9190612e90565b60405180910390f35b6105dd60048036038101906105d89190612ae7565b6119e7565b6040516105ea9190612e90565b60405180910390f35b61060d600480360381019061060891906129e7565b611afd565b60405161061a9190612e90565b60405180910390f35b61063d600480360381019061063891906129e7565b611b53565b005b60606003805461064e906132e4565b80601f016020809104026020016040519081016040528092919081815260200182805461067a906132e4565b80156106c75780601f1061069c576101008083540402835291602001916106c7565b820191906000526020600020905b8154815290600101906020018083116106aa57829003601f168201915b5050505050905090565b60006106e56106de611d04565b8484611d0c565b6001905092915050565b6000600254905090565b6000600960009054906101000a900460ff161561074b576040517f08c379a00000000000000000000000000000000000000000000000000000000081526004016107429061300d565b60405180910390fd5b83826000600660008473ffffffffffffffffffffffffffffffffffffffff1673ffffffffffffffffffffffffffffffffffffffff16815260200190815260200160002080549050905060008111156107a8576107a683611902565b505b81600760008573ffffffffffffffffffffffffffffffffffffffff1673ffffffffffffffffffffffffffffffffffffffff168152602001908152602001600020546107f391906131a8565b6000808573ffffffffffffffffffffffffffffffffffffffff1673ffffffffffffffffffffffffffffffffffffffff168152602001908152602001600020541015610873576040517f08c379a000000000000000000000000000000000000000000000000000000000815260040161086a90612eed565b60405180910390fd5b61087e878787611ed7565b93505050509392505050565b60006012905090565b60006109356108a0611d04565b8484600160006108ae611d04565b73ffffffffffffffffffffffffffffffffffffffff1673ffffffffffffffffffffffffffffffffffffffff16815260200190815260200160002060008873ffffffffffffffffffffffffffffffffffffffff1673ffffffffffffffffffffffffffffffffffffffff1681526020019081526020016000205461093091906131a8565b611d0c565b6001905092915050565b610947611d04565b73ffffffffffffffffffffffffffffffffffffffff1661096561111a565b73ffffffffffffffffffffffffffffffffffffffff16146109bb576040517f08c379a00000000000000000000000000000000000000000000000000000000081526004016109b29061306d565b60405180910390fd5b600960009054906101000a900460ff16610a0a576040517f08c379a0000000000000000000000000000000000000000000000000000000008152600401610a0190612fed565b60405180910390fd5b6000600960006101000a81548160ff0219169083151502179055507f7805862f689e2f13df9f062ff482ad3ad112aca9e0847911ed832e158c525b3360405160405180910390a1565b610a64610a5e611d04565b82611fcf565b50565b610a6f611d04565b73ffffffffffffffffffffffffffffffffffffffff16610a8d61111a565b73ffffffffffffffffffffffffffffffffffffffff1614610ae3576040517f08c379a0000000000000000000000000000000000000000000000000000000008152600401610ada9061306d565b60405180910390fd5b6000600860008373ffffffffffffffffffffffffffffffffffffffff1673ffffffffffffffffffffffffffffffffffffffff16815260200190815260200160002060006101000a81548160ff0219169083151502179055507f4feb53e305297ab8fb8f3420c95ea04737addc254a7270d8fc4605d2b9c61dba81604051610b6a9190612e75565b60405180910390a150565b600960009054906101000a900460ff1681565b600080610b948361219a565b905060008080610ba386611712565b9150915081841015610bb457600080fd5b6000811115610c065760005b81811015610c0457600080610bd589846114dd565b91509150428211610bef578086610bec91906131a8565b95505b50508080610bfc90613316565b915050610bc0565b505b828285610c1391906131fe565b610c1d91906131a8565b945050505050919050565b610c30611d04565b73ffffffffffffffffffffffffffffffffffffffff16610c4e61111a565b73ffffffffffffffffffffffffffffffffffffffff1614610ca4576040517f08c379a0000000000000000000000000000000000000000000000000000000008152600401610c9b9061306d565b60405180910390fd5b600073ffffffffffffffffffffffffffffffffffffffff16600560009054906101000a900473ffffffffffffffffffffffffffffffffffffffff1673ffffffffffffffffffffffffffffffffffffffff167f8be0079c531659141344cd1fd0a4f28419497f9722a3daafe3b4186f6b6457e060405160405180910390a36000600560006101000a81548173ffffffffffffffffffffffffffffffffffffffff021916908373ffffffffffffffffffffffffffffffffffffffff160217905550565b6000610d7883610d73611d04565b6117a1565b905081811015610dbd576040517f08c379a0000000000000000000000000000000000000000000000000000000008152600401610db49061308d565b60405180910390fd5b610dd183610dc9611d04565b848403611d0c565b610ddb8383611fcf565b505050565b6000610dea611d04565b73ffffffffffffffffffffffffffffffffffffffff16610e0861111a565b73ffffffffffffffffffffffffffffffffffffffff1614610e5e576040517f08c379a0000000000000000000000000000000000000000000000000000000008152600401610e559061306d565b60405180910390fd5b81600660008573ffffffffffffffffffffffffffffffffffffffff1673ffffffffffffffffffffffffffffffffffffffff1681526020019081526020016000208054905011610ee2576040517f08c379a0000000000000000000000000000000000000000000000000000000008152600401610ed990612f8d565b60405180910390fd5b610eec83836121e2565b506001905092915050565b610eff611d04565b73ffffffffffffffffffffffffffffffffffffffff16610f1d61111a565b73ffffffffffffffffffffffffffffffffffffffff1614610f73576040517f08c379a0000000000000000000000000000000000000000000000000000000008152600401610f6a9061306d565b60405180910390fd5b600960009054906101000a900460ff1615610fc3576040517f08c379a0000000000000000000000000000000000000000000000000000000008152600401610fba9061300d565b60405180910390fd5b6001600960006101000a81548160ff0219169083151502179055507f6985a02210a168e66602d3235cb6db0e70f92b3ba4d376a33c0f3d9434bff62560405160405180910390a1565b611014611d04565b73ffffffffffffffffffffffffffffffffffffffff1661103261111a565b73ffffffffffffffffffffffffffffffffffffffff1614611088576040517f08c379a000000000000000000000000000000000000000000000000000000000815260040161107f9061306d565b60405180910390fd5b6001600860008373ffffffffffffffffffffffffffffffffffffffff1673ffffffffffffffffffffffffffffffffffffffff16815260200190815260200160002060006101000a81548160ff0219169083151502179055507f8a5c4736a33c7b7f29a2c34ea9ff9608afc5718d56f6fd6dcbd2d3711a1a49138160405161110f9190612e75565b60405180910390a150565b6000600560009054906101000a900473ffffffffffffffffffffffffffffffffffffffff16905090565b606060048054611153906132e4565b80601f016020809104026020016040519081016040528092919081815260200182805461117f906132e4565b80156111cc5780601f106111a1576101008083540402835291602001916111cc565b820191906000526020600020905b8154815290600101906020018083116111af57829003601f168201915b5050505050905090565b600080600160006111e5611d04565b73ffffffffffffffffffffffffffffffffffffffff1673ffffffffffffffffffffffffffffffffffffffff16815260200190815260200160002060008573ffffffffffffffffffffffffffffffffffffffff1673ffffffffffffffffffffffffffffffffffffffff168152602001908152602001600020549050828110156112a2576040517f08c379a00000000000000000000000000000000000000000000000000000000081526004016112999061310d565b60405180910390fd5b6112b66112ad611d04565b85858403611d0c565b600191505092915050565b6000600860003373ffffffffffffffffffffffffffffffffffffffff1673ffffffffffffffffffffffffffffffffffffffff16815260200190815260200160002060009054906101000a900460ff1615611350576040517f08c379a000000000000000000000000000000000000000000000000000000000815260040161134790612fcd565b60405180910390fd5b600960009054906101000a900460ff16156113a0576040517f08c379a00000000000000000000000000000000000000000000000000000000081526004016113979061300d565b60405180910390fd5b33826000600660008473ffffffffffffffffffffffffffffffffffffffff1673ffffffffffffffffffffffffffffffffffffffff16815260200190815260200160002080549050905060008111156113fd576113fb83611902565b505b81600760008573ffffffffffffffffffffffffffffffffffffffff1673ffffffffffffffffffffffffffffffffffffffff1681526020019081526020016000205461144891906131a8565b6000808573ffffffffffffffffffffffffffffffffffffffff1673ffffffffffffffffffffffffffffffffffffffff1681526020019081526020016000205410156114c8576040517f08c379a00000000000000000000000000000000000000000000000000000000081526004016114bf90612eed565b60405180910390fd5b6114d286866124d0565b935050505092915050565b6000806000600660008673ffffffffffffffffffffffffffffffffffffffff1673ffffffffffffffffffffffffffffffffffffffff1681526020019081526020016000208481548110611533576115326133ec565b5b90600052602060002090600202016040518060400160405290816000820154815260200160018201548152505090508060000151925080602001519150509250929050565b6000611582611d04565b73ffffffffffffffffffffffffffffffffffffffff166115a061111a565b73ffffffffffffffffffffffffffffffffffffffff16146115f6576040517f08c379a00000000000000000000000000000000000000000000000000000000081526004016115ed9061306d565b60405180910390fd5b6000600660008473ffffffffffffffffffffffffffffffffffffffff1673ffffffffffffffffffffffffffffffffffffffff168152602001908152602001600020805490501161167b576040517f08c379a000000000000000000000000000000000000000000000000000000000815260040161167290612f8d565b60405180910390fd5b6000600660008473ffffffffffffffffffffffffffffffffffffffff1673ffffffffffffffffffffffffffffffffffffffff1681526020019081526020016000208054905090505b60008111156116f6576116e2836001836116dd91906131fe565b6121e2565b5080806116ee906132ba565b9150506116c3565b5060019050919050565b600061170b8261219a565b9050919050565b600080600760008473ffffffffffffffffffffffffffffffffffffffff1673ffffffffffffffffffffffffffffffffffffffff168152602001908152602001600020549150600660008473ffffffffffffffffffffffffffffffffffffffff1673ffffffffffffffffffffffffffffffffffffffff168152602001908152602001600020805490509050915091565b6000600160008473ffffffffffffffffffffffffffffffffffffffff1673ffffffffffffffffffffffffffffffffffffffff16815260200190815260200160002060008373ffffffffffffffffffffffffffffffffffffffff1673ffffffffffffffffffffffffffffffffffffffff16815260200190815260200160002054905092915050565b6000611832611d04565b73ffffffffffffffffffffffffffffffffffffffff1661185061111a565b73ffffffffffffffffffffffffffffffffffffffff16146118a6576040517f08c379a000000000000000000000000000000000000000000000000000000000815260040161189d9061306d565b60405180910390fd5b600073ffffffffffffffffffffffffffffffffffffffff168473ffffffffffffffffffffffffffffffffffffffff1614156118e057600080fd5b6118eb3385856124ee565b6118f6848484612764565b50600190509392505050565b600080600090505b600660008473ffffffffffffffffffffffffffffffffffffffff1673ffffffffffffffffffffffffffffffffffffffff168152602001908152602001600020805490508110156119dd5742600660008573ffffffffffffffffffffffffffffffffffffffff1673ffffffffffffffffffffffffffffffffffffffff16815260200190815260200160002082815481106119a6576119a56133ec565b5b90600052602060002090600202016000015410156119ca576119c883826121e2565b505b80806119d590613316565b91505061190a565b5060019050919050565b60006119f1611d04565b73ffffffffffffffffffffffffffffffffffffffff16611a0f61111a565b73ffffffffffffffffffffffffffffffffffffffff1614611a65576040517f08c379a0000000000000000000000000000000000000000000000000000000008152600401611a5c9061306d565b60405180910390fd5b826000808673ffffffffffffffffffffffffffffffffffffffff1673ffffffffffffffffffffffffffffffffffffffff168152602001908152602001600020541015611ae6576040517f08c379a0000000000000000000000000000000000000000000000000000000008152600401611add9061302d565b60405180910390fd5b611af1848484612764565b50600190509392505050565b6000600860008373ffffffffffffffffffffffffffffffffffffffff1673ffffffffffffffffffffffffffffffffffffffff16815260200190815260200160002060009054906101000a900460ff169050919050565b611b5b611d04565b73ffffffffffffffffffffffffffffffffffffffff16611b7961111a565b73ffffffffffffffffffffffffffffffffffffffff1614611bcf576040517f08c379a0000000000000000000000000000000000000000000000000000000008152600401611bc69061306d565b60405180910390fd5b600073ffffffffffffffffffffffffffffffffffffffff168173ffffffffffffffffffffffffffffffffffffffff161415611c3f576040517f08c379a0000000000000000000000000000000000000000000000000000000008152600401611c3690612f4d565b60405180910390fd5b8073ffffffffffffffffffffffffffffffffffffffff16600560009054906101000a900473ffffffffffffffffffffffffffffffffffffffff1673ffffffffffffffffffffffffffffffffffffffff167f8be0079c531659141344cd1fd0a4f28419497f9722a3daafe3b4186f6b6457e060405160405180910390a380600560006101000a81548173ffffffffffffffffffffffffffffffffffffffff021916908373ffffffffffffffffffffffffffffffffffffffff16021790555050565b505050565b600033905090565b600073ffffffffffffffffffffffffffffffffffffffff168373ffffffffffffffffffffffffffffffffffffffff161415611d7c576040517f08c379a0000000000000000000000000000000000000000000000000000000008152600401611d73906130ed565b60405180910390fd5b600073ffffffffffffffffffffffffffffffffffffffff168273ffffffffffffffffffffffffffffffffffffffff161415611dec576040517f08c379a0000000000000000000000000000000000000000000000000000000008152600401611de390612f6d565b60405180910390fd5b80600160008573ffffffffffffffffffffffffffffffffffffffff1673ffffffffffffffffffffffffffffffffffffffff16815260200190815260200160002060008473ffffffffffffffffffffffffffffffffffffffff1673ffffffffffffffffffffffffffffffffffffffff168152602001908152602001600020819055508173ffffffffffffffffffffffffffffffffffffffff168373ffffffffffffffffffffffffffffffffffffffff167f8c5be1e5ebec7d5bd14f71427d1e84f3dd0314c0f7b2291e5b200ac8c7c3b92583604051611eca919061312d565b60405180910390a3505050565b6000611ee48484846124ee565b6000600160008673ffffffffffffffffffffffffffffffffffffffff1673ffffffffffffffffffffffffffffffffffffffff1681526020019081526020016000206000611f2f611d04565b73ffffffffffffffffffffffffffffffffffffffff1673ffffffffffffffffffffffffffffffffffffffff16815260200190815260200160002054905082811015611faf576040517f08c379a0000000000000000000000000000000000000000000000000000000008152600401611fa69061304d565b60405180910390fd5b611fc385611fbb611d04565b858403611d0c565b60019150509392505050565b600073ffffffffffffffffffffffffffffffffffffffff168273ffffffffffffffffffffffffffffffffffffffff16141561203f576040517f08c379a0000000000000000000000000000000000000000000000000000000008152600401612036906130ad565b60405180910390fd5b61204b826000836129ad565b60008060008473ffffffffffffffffffffffffffffffffffffffff1673ffffffffffffffffffffffffffffffffffffffff168152602001908152602001600020549050818110156120d1576040517f08c379a00000000000000000000000000000000000000000000000000000000081526004016120c890612f0d565b60405180910390fd5b8181036000808573ffffffffffffffffffffffffffffffffffffffff1673ffffffffffffffffffffffffffffffffffffffff16815260200190815260200160002081905550816002600082825461212891906131fe565b92505081905550600073ffffffffffffffffffffffffffffffffffffffff168373ffffffffffffffffffffffffffffffffffffffff167fddf252ad1be2c89b69c2b068fc378daa952ba7f163c4a11628f55a4df523b3ef8460405161218d919061312d565b60405180910390a3505050565b60008060008373ffffffffffffffffffffffffffffffffffffffff1673ffffffffffffffffffffffffffffffffffffffff168152602001908152602001600020549050919050565b600080600660008573ffffffffffffffffffffffffffffffffffffffff1673ffffffffffffffffffffffffffffffffffffffff1681526020019081526020016000208381548110612236576122356133ec565b5b906000526020600020906002020190508060010154600760008673ffffffffffffffffffffffffffffffffffffffff1673ffffffffffffffffffffffffffffffffffffffff1681526020019081526020016000205461229591906131fe565b600760008673ffffffffffffffffffffffffffffffffffffffff1673ffffffffffffffffffffffffffffffffffffffff168152602001908152602001600020819055508373ffffffffffffffffffffffffffffffffffffffff167f6381d9813cabeb57471b5a7e05078e64845ccdb563146a6911d536f24ce960f18260010154604051612322919061312d565b60405180910390a2600660008573ffffffffffffffffffffffffffffffffffffffff1673ffffffffffffffffffffffffffffffffffffffff1681526020019081526020016000206001600660008773ffffffffffffffffffffffffffffffffffffffff1673ffffffffffffffffffffffffffffffffffffffff168152602001908152602001600020805490506123b891906131fe565b815481106123c9576123c86133ec565b5b9060005260206000209060020201600660008673ffffffffffffffffffffffffffffffffffffffff1673ffffffffffffffffffffffffffffffffffffffff1681526020019081526020016000208481548110612428576124276133ec565b5b90600052602060002090600202016000820154816000015560018201548160010155905050600660008573ffffffffffffffffffffffffffffffffffffffff1673ffffffffffffffffffffffffffffffffffffffff16815260200190815260200160002080548061249c5761249b6133bd565b5b6001900381819060005260206000209060020201600080820160009055600182016000905550509055600191505092915050565b60006124e46124dd611d04565b84846124ee565b6001905092915050565b600073ffffffffffffffffffffffffffffffffffffffff168373ffffffffffffffffffffffffffffffffffffffff16141561255e576040517f08c379a0000000000000000000000000000000000000000000000000000000008152600401612555906130cd565b60405180910390fd5b600073ffffffffffffffffffffffffffffffffffffffff168273ffffffffffffffffffffffffffffffffffffffff1614156125ce576040517f08c379a00000000000000000000000000000000000000000000000000000000081526004016125c590612ecd565b60405180910390fd5b6125d98383836129ad565b60008060008573ffffffffffffffffffffffffffffffffffffffff1673ffffffffffffffffffffffffffffffffffffffff1681526020019081526020016000205490508181101561265f576040517f08c379a000000000000000000000000000000000000000000000000000000000815260040161265690612fad565b60405180910390fd5b8181036000808673ffffffffffffffffffffffffffffffffffffffff1673ffffffffffffffffffffffffffffffffffffffff16815260200190815260200160002081905550816000808573ffffffffffffffffffffffffffffffffffffffff1673ffffffffffffffffffffffffffffffffffffffff16815260200190815260200160002060008282546126f291906131a8565b925050819055508273ffffffffffffffffffffffffffffffffffffffff168473ffffffffffffffffffffffffffffffffffffffff167fddf252ad1be2c89b69c2b068fc378daa952ba7f163c4a11628f55a4df523b3ef84604051612756919061312d565b60405180910390a350505050565b6000600760008573ffffffffffffffffffffffffffffffffffffffff1673ffffffffffffffffffffffffffffffffffffffff16815260200190815260200160002054836127b191906131a8565b6000808673ffffffffffffffffffffffffffffffffffffffff1673ffffffffffffffffffffffffffffffffffffffff168152602001908152602001600020541015612831576040517f08c379a000000000000000000000000000000000000000000000000000000000815260040161282890612f2d565b60405180910390fd5b82600760008673ffffffffffffffffffffffffffffffffffffffff1673ffffffffffffffffffffffffffffffffffffffff1681526020019081526020016000205461287c91906131a8565b600760008673ffffffffffffffffffffffffffffffffffffffff1673ffffffffffffffffffffffffffffffffffffffff16815260200190815260200160002081905550600660008573ffffffffffffffffffffffffffffffffffffffff1673ffffffffffffffffffffffffffffffffffffffff1681526020019081526020016000206040518060400160405280848152602001858152509080600181540180825580915050600190039060005260206000209060020201600090919091909150600082015181600001556020820151816001015550508373ffffffffffffffffffffffffffffffffffffffff167f49eaf4942f1237055eb4cfa5f31c9dfe50d5b4ade01e021f7de8be2fbbde557b848460405161299a929190613148565b60405180910390a2600190509392505050565b6129b8838383611cff565b505050565b6000813590506129cc8161392a565b92915050565b6000813590506129e181613941565b92915050565b6000602082840312156129fd576129fc61341b565b5b6000612a0b848285016129bd565b91505092915050565b60008060408385031215612a2b57612a2a61341b565b5b6000612a39858286016129bd565b9250506020612a4a858286016129bd565b9150509250929050565b600080600060608486031215612a6d57612a6c61341b565b5b6000612a7b868287016129bd565b9350506020612a8c868287016129bd565b9250506040612a9d868287016129d2565b9150509250925092565b60008060408385031215612abe57612abd61341b565b5b6000612acc858286016129bd565b9250506020612add858286016129d2565b9150509250929050565b600080600060608486031215612b0057612aff61341b565b5b6000612b0e868287016129bd565b9350506020612b1f868287016129d2565b9250506040612b30868287016129d2565b9150509250925092565b600060208284031215612b5057612b4f61341b565b5b6000612b5e848285016129d2565b91505092915050565b612b7081613232565b82525050565b612b7f81613244565b82525050565b6000612b908261318c565b612b9a8185613197565b9350612baa818560208601613287565b612bb381613420565b840191505092915050565b6000612bcb602383613197565b9150612bd682613431565b604082019050919050565b6000612bee601a83613197565b9150612bf982613480565b602082019050919050565b6000612c11602283613197565b9150612c1c826134a9565b604082019050919050565b6000612c34603283613197565b9150612c3f826134f8565b604082019050919050565b6000612c57602683613197565b9150612c6282613547565b604082019050919050565b6000612c7a602283613197565b9150612c8582613596565b604082019050919050565b6000612c9d601783613197565b9150612ca8826135e5565b602082019050919050565b6000612cc0602683613197565b9150612ccb8261360e565b604082019050919050565b6000612ce3601983613197565b9150612cee8261365d565b602082019050919050565b6000612d06600e83613197565b9150612d1182613686565b602082019050919050565b6000612d29600f83613197565b9150612d34826136af565b602082019050919050565b6000612d4c602683613197565b9150612d57826136d8565b604082019050919050565b6000612d6f602883613197565b9150612d7a82613727565b604082019050919050565b6000612d92602083613197565b9150612d9d82613776565b602082019050919050565b6000612db5602483613197565b9150612dc08261379f565b604082019050919050565b6000612dd8602183613197565b9150612de3826137ee565b604082019050919050565b6000612dfb602583613197565b9150612e068261383d565b604082019050919050565b6000612e1e602483613197565b9150612e298261388c565b604082019050919050565b6000612e41602583613197565b9150612e4c826138db565b604082019050919050565b612e6081613270565b82525050565b612e6f8161327a565b82525050565b6000602082019050612e8a6000830184612b67565b92915050565b6000602082019050612ea56000830184612b76565b92915050565b60006020820190508181036000830152612ec58184612b85565b905092915050565b60006020820190508181036000830152612ee681612bbe565b9050919050565b60006020820190508181036000830152612f0681612be1565b9050919050565b60006020820190508181036000830152612f2681612c04565b9050919050565b60006020820190508181036000830152612f4681612c27565b9050919050565b60006020820190508181036000830152612f6681612c4a565b9050919050565b60006020820190508181036000830152612f8681612c6d565b9050919050565b60006020820190508181036000830152612fa681612c90565b9050919050565b60006020820190508181036000830152612fc681612cb3565b9050919050565b60006020820190508181036000830152612fe681612cd6565b9050919050565b6000602082019050818103600083015261300681612cf9565b9050919050565b6000602082019050818103600083015261302681612d1c565b9050919050565b6000602082019050818103600083015261304681612d3f565b9050919050565b6000602082019050818103600083015261306681612d62565b9050919050565b6000602082019050818103600083015261308681612d85565b9050919050565b600060208201905081810360008301526130a681612da8565b9050919050565b600060208201905081810360008301526130c681612dcb565b9050919050565b600060208201905081810360008301526130e681612dee565b9050919050565b6000602082019050818103600083015261310681612e11565b9050919050565b6000602082019050818103600083015261312681612e34565b9050919050565b60006020820190506131426000830184612e57565b92915050565b600060408201905061315d6000830185612e57565b61316a6020830184612e57565b9392505050565b60006020820190506131866000830184612e66565b92915050565b600081519050919050565b600082825260208201905092915050565b60006131b382613270565b91506131be83613270565b9250827fffffffffffffffffffffffffffffffffffffffffffffffffffffffffffffffff038211156131f3576131f261335f565b5b828201905092915050565b600061320982613270565b915061321483613270565b9250828210156132275761322661335f565b5b828203905092915050565b600061323d82613250565b9050919050565b60008115159050919050565b600073ffffffffffffffffffffffffffffffffffffffff82169050919050565b6000819050919050565b600060ff82169050919050565b60005b838110156132a557808201518184015260208101905061328a565b838111156132b4576000848401525b50505050565b60006132c582613270565b915060008214156132d9576132d861335f565b5b600182039050919050565b600060028204905060018216806132fc57607f821691505b602082108114156133105761330f61338e565b5b50919050565b600061332182613270565b91507fffffffffffffffffffffffffffffffffffffffffffffffffffffffffffffffff8214156133545761335361335f565b5b600182019050919050565b7f4e487b7100000000000000000000000000000000000000000000000000000000600052601160045260246000fd5b7f4e487b7100000000000000000000000000000000000000000000000000000000600052602260045260246000fd5b7f4e487b7100000000000000000000000000000000000000000000000000000000600052603160045260246000fd5b7f4e487b7100000000000000000000000000000000000000000000000000000000600052603260045260246000fd5b600080fd5b6000601f19601f8301169050919050565b7f45524332303a207472616e7366657220746f20746865207a65726f206164647260008201527f6573730000000000000000000000000000000000000000000000000000000000602082015250565b7f636865636b4c6f636b203a2062616c616e636520657863656564000000000000600082015250565b7f45524332303a206275726e20616d6f756e7420657863656564732062616c616e60008201527f6365000000000000000000000000000000000000000000000000000000000000602082015250565b7f6c6f636b203a206c6f636b656420746f74616c2073686f756c6420626520736d60008201527f616c6c6572207468616e2062616c616e63650000000000000000000000000000602082015250565b7f4f776e61626c653a206e6577206f776e657220697320746865207a65726f206160008201527f6464726573730000000000000000000000000000000000000000000000000000602082015250565b7f45524332303a20617070726f766520746f20746865207a65726f20616464726560008201527f7373000000000000000000000000000000000000000000000000000000000000602082015250565b7f5468657265206973206e6f74206c6f636b20696e666f2e000000000000000000600082015250565b7f45524332303a207472616e7366657220616d6f756e742065786365656473206260008201527f616c616e63650000000000000000000000000000000000000000000000000000602082015250565b7f53656e646572206163636f756e74206973206c6f636b65642e00000000000000600082015250565b7f4e6f7420706175736564206e6f77000000000000000000000000000000000000600082015250565b7f506175736564206279206f776e65720000000000000000000000000000000000600082015250565b7f5468657265206973206e6f7420656e6f7567682062616c616e6365206f66206860008201527f6f6c6465722e0000000000000000000000000000000000000000000000000000602082015250565b7f45524332303a207472616e7366657220616d6f756e742065786365656473206160008201527f6c6c6f77616e6365000000000000000000000000000000000000000000000000602082015250565b7f4f776e61626c653a2063616c6c6572206973206e6f7420746865206f776e6572600082015250565b7f45524332303a206275726e20616d6f756e74206578636565647320616c6c6f7760008201527f616e636500000000000000000000000000000000000000000000000000000000602082015250565b7f45524332303a206275726e2066726f6d20746865207a65726f2061646472657360008201527f7300000000000000000000000000000000000000000000000000000000000000602082015250565b7f45524332303a207472616e736665722066726f6d20746865207a65726f20616460008201527f6472657373000000000000000000000000000000000000000000000000000000602082015250565b7f45524332303a20617070726f76652066726f6d20746865207a65726f2061646460008201527f7265737300000000000000000000000000000000000000000000000000000000602082015250565b7f45524332303a2064656372656173656420616c6c6f77616e63652062656c6f7760008201527f207a65726f000000000000000000000000000000000000000000000000000000602082015250565b61393381613232565b811461393e57600080fd5b50565b61394a81613270565b811461395557600080fd5b5056fea26469706673582212203eda9ae9976c5fb0754edbab0a14b8bbcefcf8fa4c66e19716caa0ed06058ad464736f6c63430008050033",
  "immutableReferences": {},
  "source": "// SPDX-License-Identifier: MIT\npragma solidity 0.8.5;\n\nabstract contract Context {\n    function _msgSender() internal view virtual returns (address) {\n        return msg.sender;\n    }\n\n    function _msgData() internal view virtual returns (bytes calldata) {\n        this;\n        // silence state mutability warning without generating bytecode - see https://github.com/ethereum/solidity/issues/2691\n        return msg.data;\n    }\n}\n\nabstract contract Ownable is Context {\n    address private _owner;\n\n    event OwnershipTransferred(address indexed previousOwner, address indexed newOwner);\n\n    constructor() {\n        address msgSender = _msgSender();\n        _owner = msgSender;\n        emit OwnershipTransferred(address(0), msgSender);\n    }\n\n    function owner() public view virtual returns (address) {\n        return _owner;\n    }\n\n    modifier onlyOwner() {\n        require(owner() == _msgSender(), \"Ownable: caller is not the owner\");\n        _;\n    }\n\n    function renounceOwnership() public virtual onlyOwner {\n        emit OwnershipTransferred(_owner, address(0));\n        _owner = address(0);\n    }\n\n    function transferOwnership(address newOwner) public virtual onlyOwner {\n        require(newOwner != address(0), \"Ownable: new owner is the zero address\");\n        emit OwnershipTransferred(_owner, newOwner);\n        _owner = newOwner;\n    }\n}\n\ninterface IERC20 {\n    function totalSupply() external view returns (uint256);\n    function balanceOf(address account) external view returns (uint256);\n    function transfer(address recipient, uint256 amount) external returns (bool);\n    function allowance(address owner, address spender) external view returns (uint256);\n    function approve(address spender, uint256 amount) external returns (bool);\n    function transferFrom(address sender, address recipient, uint256 amount) external returns (bool);\n\n    event Transfer(address indexed from, address indexed to, uint256 value);\n    event Approval(address indexed owner, address indexed spender, uint256 value);\n}\n\ninterface IERC20Metadata is IERC20 {\n    function name() external view returns (string memory);\n    function symbol() external view returns (string memory);\n    function decimals() external view returns (uint8);\n}\n\ncontract ERC20 is Context, IERC20, IERC20Metadata {\n    mapping(address => uint256) internal _balances;\n\n    mapping(address => mapping(address => uint256)) private _allowances;\n\n    uint256 private _totalSupply;\n\n    string private _name;\n    string private _symbol;\n\n    constructor(string memory name_, string memory symbol_) {\n        _name = name_;\n        _symbol = symbol_;\n    }\n\n    function name() public view virtual override returns (string memory) {\n        return _name;\n    }\n\n    function symbol() public view virtual override returns (string memory) {\n        return _symbol;\n    }\n\n    function decimals() public view virtual override returns (uint8) {\n        return 18;\n    }\n\n    function totalSupply() public view virtual override returns (uint256) {\n        return _totalSupply;\n    }\n\n    function balanceOf(address account) public view virtual override returns (uint256) {\n        return _balances[account];\n    }\n\n    function transfer(address recipient, uint256 amount) public virtual override returns (bool) {\n        _transfer(_msgSender(), recipient, amount);\n        return true;\n    }\n\n    function allowance(address owner, address spender) public view virtual override returns (uint256) {\n        return _allowances[owner][spender];\n    }\n\n    function approve(address spender, uint256 amount) public virtual override returns (bool) {\n        _approve(_msgSender(), spender, amount);\n        return true;\n    }\n\n    function transferFrom(\n        address sender,\n        address recipient,\n        uint256 amount\n    ) public virtual override returns (bool) {\n        _transfer(sender, recipient, amount);\n\n        uint256 currentAllowance = _allowances[sender][_msgSender()];\n        require(currentAllowance >= amount, \"ERC20: transfer amount exceeds allowance\");\n    unchecked {\n        _approve(sender, _msgSender(), currentAllowance - amount);\n    }\n\n        return true;\n    }\n\n    function increaseAllowance(address spender, uint256 addedValue) public virtual returns (bool) {\n        _approve(_msgSender(), spender, _allowances[_msgSender()][spender] + addedValue);\n        return true;\n    }\n\n    function decreaseAllowance(address spender, uint256 subtractedValue) public virtual returns (bool) {\n        uint256 currentAllowance = _allowances[_msgSender()][spender];\n        require(currentAllowance >= subtractedValue, \"ERC20: decreased allowance below zero\");\n    unchecked {\n        _approve(_msgSender(), spender, currentAllowance - subtractedValue);\n    }\n\n        return true;\n    }\n\n    function _transfer(\n        address sender,\n        address recipient,\n        uint256 amount\n    ) internal virtual {\n        require(sender != address(0), \"ERC20: transfer from the zero address\");\n        require(recipient != address(0), \"ERC20: transfer to the zero address\");\n\n        _beforeTokenTransfer(sender, recipient, amount);\n\n        uint256 senderBalance = _balances[sender];\n        require(senderBalance >= amount, \"ERC20: transfer amount exceeds balance\");\n    unchecked {\n        _balances[sender] = senderBalance - amount;\n    }\n        _balances[recipient] += amount;\n\n        emit Transfer(sender, recipient, amount);\n    }\n\n    function _mint(address account, uint256 amount) internal virtual {\n        require(account != address(0), \"ERC20: mint to the zero address\");\n\n        _beforeTokenTransfer(address(0), account, amount);\n\n        _totalSupply += amount;\n        _balances[account] += amount;\n        emit Transfer(address(0), account, amount);\n    }\n\n    function _burn(address account, uint256 amount) internal virtual {\n        require(account != address(0), \"ERC20: burn from the zero address\");\n\n        _beforeTokenTransfer(account, address(0), amount);\n\n        uint256 accountBalance = _balances[account];\n        require(accountBalance >= amount, \"ERC20: burn amount exceeds balance\");\n    unchecked {\n        _balances[account] = accountBalance - amount;\n    }\n        _totalSupply -= amount;\n\n        emit Transfer(account, address(0), amount);\n    }\n\n    function _approve(\n        address owner,\n        address spender,\n        uint256 amount\n    ) internal virtual {\n        require(owner != address(0), \"ERC20: approve from the zero address\");\n        require(spender != address(0), \"ERC20: approve to the zero address\");\n\n        _allowances[owner][spender] = amount;\n        emit Approval(owner, spender, amount);\n    }\n\n    function _beforeTokenTransfer(\n        address from,\n        address to,\n        uint256 amount\n    ) internal virtual {}\n}\n\nabstract contract ERC20Burnable is Context, ERC20, Ownable {\n    function burn(uint256 amount) public virtual {\n        _burn(_msgSender(), amount);\n    }\n\n    function burnFrom(address account, uint256 amount) public virtual {\n        uint256 currentAllowance = allowance(account, _msgSender());\n        require(currentAllowance >= amount, \"ERC20: burn amount exceeds allowance\");\n    unchecked {\n        _approve(account, _msgSender(), currentAllowance - amount);\n    }\n        _burn(account, amount);\n    }\n}\n\nabstract contract ERC20Lockable is ERC20, Ownable {\n    struct LockInfo {\n        uint256 _releaseTime;\n        uint256 _amount;\n    }\n\n    mapping(address => LockInfo[]) internal _locks;\n    mapping(address => uint256) internal _totalLocked;\n\n    event Lock(address indexed from, uint256 amount, uint256 releaseTime);\n    event Unlock(address indexed from, uint256 amount);\n\n    modifier checkLock(address from, uint256 amount) {\n        uint256 length = _locks[from].length;\n        if (length > 0) {\n            autoUnlock(from);\n        }\n        require(_balances[from] >= _totalLocked[from] + amount, \"checkLock : balance exceed\");\n        _;\n    }\n\n    function _lock(address from, uint256 amount, uint256 releaseTime) internal returns (bool success)\n    {\n        require(\n            _balances[from] >= amount + _totalLocked[from],\n            \"lock : locked total should be smaller than balance\"\n        );\n        _totalLocked[from] = _totalLocked[from] + amount;\n        _locks[from].push(LockInfo(releaseTime, amount));\n        emit Lock(from, amount, releaseTime);\n        success = true;\n    }\n\n    function _unlock(address from, uint256 index) internal returns (bool success) {\n        LockInfo storage lock = _locks[from][index];\n        _totalLocked[from] = _totalLocked[from] - lock._amount;\n        emit Unlock(from, lock._amount);\n        _locks[from][index] = _locks[from][_locks[from].length - 1];\n        _locks[from].pop();\n        success = true;\n    }\n\n    function lock(address recipient, uint256 amount, uint256 releaseTime) public onlyOwner returns (bool) {\n        require(_balances[recipient] >= amount, \"There is not enough balance of holder.\");\n        _lock(recipient, amount, releaseTime);\n\n        return true;\n    }\n\n    function autoUnlock(address from) public returns (bool success) {\n        for (uint256 i = 0; i < _locks[from].length; i++) {\n            if (_locks[from][i]._releaseTime < block.timestamp) {\n                _unlock(from, i);\n            }\n        }\n        success = true;\n    }\n\n    function unlock(address from, uint256 idx) public onlyOwner returns (bool success) {\n        require(_locks[from].length > idx, \"There is not lock info.\");\n        _unlock(from, idx);\n        success = true;\n    }\n\n    function releaseLock(address from) external onlyOwner returns (bool success){\n        require(_locks[from].length > 0, \"There is not lock info.\");\n        //        uint256 i = _locks[from].length - 1;\n        //        _unlock(from, i);\n        for (uint256 i = _locks[from].length; i > 0; i--) {\n            _unlock(from, i - 1);\n        }\n        success = true;\n    }\n\n    function transferWithLock(address recipient, uint256 amount, uint256 releaseTime) external onlyOwner returns (bool success)\n    {\n        require(recipient != address(0));\n        _transfer(msg.sender, recipient, amount);\n        _lock(recipient, amount, releaseTime);\n        success = true;\n    }\n\n    function lockInfo(address locked, uint256 index) public view returns (uint256 releaseTime, uint256 amount)\n    {\n        LockInfo memory lock = _locks[locked][index];\n        releaseTime = lock._releaseTime;\n        amount = lock._amount;\n    }\n\n    function totalLocked(address locked) public view returns (uint256 amount, uint256 length){\n        amount = _totalLocked[locked];\n        length = _locks[locked].length;\n    }\n}\n\nabstract contract ERC20Pauable is ERC20, Ownable {\n    event Pause();\n    event Unpause();\n\n    bool public paused = false;\n    \n    modifier whenNotPaused() {\n        require(!paused, \"Paused by owner\");\n        _;\n    }\n\n    modifier whenPaused() {\n        require(paused, \"Not paused now\");\n        _;\n    }\n\n    function pause() public onlyOwner whenNotPaused {\n        paused = true;\n        emit Pause();\n    }\n\n    function unpause() public onlyOwner whenPaused {\n        paused = false;\n        emit Unpause();\n    }\n}\n\nabstract contract ERC20Freezable is ERC20, Ownable {\n    event Frozen(address target);\n    event Unfrozen(address target);\n\n    mapping(address => bool) internal freezes;\n\n    modifier whenNotFrozen() {\n        require(!freezes[msg.sender], \"Sender account is locked.\");\n        _;\n    }\n\n    function freeze(address _target) public onlyOwner {\n        freezes[_target] = true;\n        emit Frozen(_target);\n    }\n\n    function unfreeze(address _target) public onlyOwner {\n        freezes[_target] = false;\n        emit Unfrozen(_target);\n    }\n\n    function isFrozen(address _target) public view returns (bool) {\n        return freezes[_target];\n    }\n}\n\ncontract TST2 is ERC20, ERC20Burnable, ERC20Lockable, ERC20Freezable, ERC20Pauable {\n\n    constructor() ERC20(\"TEST2\", \"TST2\") {\n        _mint(msg.sender, 2000000000 * (10 ** decimals()));\n    }\n\n    function transfer(address to, uint256 amount) public whenNotFrozen whenNotPaused checkLock(msg.sender, amount) override returns (bool) {\n        return super.transfer(to, amount);\n    }\n\n    function transferFrom(address from, address to, uint256 amount) public whenNotPaused checkLock(from, amount) override returns (bool) {\n        return super.transferFrom(from, to, amount);\n    }\n\n    function balanceOf(address holder) public view override returns (uint256 balance) {\n        uint256 totalBalance = super.balanceOf(holder);\n        uint256 avaliableBalance = 0;\n        (uint256 lockedBalance, uint256 lockedLength) = totalLocked(holder);\n        require(totalBalance >= lockedBalance);\n\n        if (lockedLength > 0) {\n            for (uint i = 0; i < lockedLength; i++) {\n                (uint256 releaseTime, uint256 amount) = lockInfo(holder, i);\n                if (releaseTime <= block.timestamp) {\n                    avaliableBalance += amount;\n                }\n            }\n        }\n\n        balance = totalBalance - lockedBalance + avaliableBalance;\n    }\n\n    function balanceOfTotal(address holder) public view returns (uint256 balance) {\n        balance = super.balanceOf(holder);\n    }\n\n    function _beforeTokenTransfer(address from, address to, uint256 amount) internal override {\n        super._beforeTokenTransfer(from, to, amount);\n    }\n}",
  "sourcePath": "/Users/dykim/Dropbox/works/ibexlab/contract/TST2/contracts/TST2.sol",
  "compiler": {
    "name": "solc",
    "version": "0.8.5+commit.a4f2e591.Emscripten.clang"
  },
  "schemaVersion": "3.4.6",
  "updatedAt": "2022-03-15T12:46:17.690Z",
  "devdoc": {
    "kind": "dev",
    "methods": {},
    "version": 1
  },
  "userdoc": {
    "kind": "user",
    "methods": {},
    "version": 1
  }
}